{
  "_format": "hh-sol-artifact-1",
  "contractName": "InsuranceContract",
  "sourceName": "contracts/insurance.sol",
  "abi": [
    {
      "inputs": [],
      "stateMutability": "nonpayable",
      "type": "constructor"
    },
    {
      "anonymous": false,
      "inputs": [
        {
          "indexed": true,
          "internalType": "address",
          "name": "sender",
          "type": "address"
        },
        {
          "indexed": true,
          "internalType": "address",
          "name": "society",
          "type": "address"
        },
        {
          "indexed": false,
          "internalType": "uint256",
          "name": "amount",
          "type": "uint256"
        }
      ],
      "name": "FundTransferredToSociety",
      "type": "event"
    },
    {
      "anonymous": false,
      "inputs": [
        {
          "indexed": true,
          "internalType": "uint256",
          "name": "id",
          "type": "uint256"
        },
        {
          "indexed": true,
          "internalType": "address",
          "name": "etudiant",
          "type": "address"
        },
        {
          "indexed": true,
          "internalType": "address",
          "name": "society",
          "type": "address"
        },
        {
          "indexed": false,
          "internalType": "uint256",
          "name": "amount",
          "type": "uint256"
        },
        {
          "indexed": false,
          "internalType": "uint256",
          "name": "dateCreation",
          "type": "uint256"
        },
        {
          "indexed": false,
          "internalType": "uint256",
          "name": "durationInDays",
          "type": "uint256"
        },
        {
          "indexed": false,
          "internalType": "uint256",
          "name": "dateExpiration",
          "type": "uint256"
        }
      ],
      "name": "InsuranceCreated",
      "type": "event"
    },
    {
      "anonymous": false,
      "inputs": [
        {
          "indexed": true,
          "internalType": "uint256",
          "name": "id",
          "type": "uint256"
        }
      ],
      "name": "InsuranceRestarted",
      "type": "event"
    },
    {
      "anonymous": false,
      "inputs": [
        {
          "indexed": true,
          "internalType": "uint256",
          "name": "id",
          "type": "uint256"
        }
      ],
      "name": "InsuranceStopped",
      "type": "event"
    },
    {
      "inputs": [
        {
          "internalType": "address",
          "name": "_society",
          "type": "address"
        },
        {
          "internalType": "uint256",
          "name": "_durationInDays",
          "type": "uint256"
        }
      ],
      "name": "createInsurance",
      "outputs": [],
      "stateMutability": "payable",
      "type": "function"
    },
    {
      "inputs": [],
      "name": "getInsurances",
      "outputs": [
        {
          "components": [
            {
              "internalType": "uint256",
              "name": "id",
              "type": "uint256"
            },
            {
              "internalType": "address",
              "name": "etudiant",
              "type": "address"
            },
            {
              "internalType": "address",
              "name": "society",
              "type": "address"
            },
            {
              "internalType": "uint256",
              "name": "amount",
              "type": "uint256"
            },
            {
              "internalType": "uint256",
              "name": "dateCreation",
              "type": "uint256"
            },
            {
              "internalType": "uint256",
              "name": "durationInDays",
              "type": "uint256"
            },
            {
              "internalType": "uint256",
              "name": "dateExpiration",
              "type": "uint256"
            },
            {
              "internalType": "bool",
              "name": "active",
              "type": "bool"
            }
          ],
          "internalType": "struct InsuranceContract.Insurance[]",
          "name": "",
          "type": "tuple[]"
        }
      ],
      "stateMutability": "view",
      "type": "function"
    },
    {
      "inputs": [
        {
          "internalType": "address",
          "name": "",
          "type": "address"
        },
        {
          "internalType": "uint256",
          "name": "",
          "type": "uint256"
        }
      ],
      "name": "insurances",
      "outputs": [
        {
          "internalType": "uint256",
          "name": "id",
          "type": "uint256"
        },
        {
          "internalType": "address",
          "name": "etudiant",
          "type": "address"
        },
        {
          "internalType": "address",
          "name": "society",
          "type": "address"
        },
        {
          "internalType": "uint256",
          "name": "amount",
          "type": "uint256"
        },
        {
          "internalType": "uint256",
          "name": "dateCreation",
          "type": "uint256"
        },
        {
          "internalType": "uint256",
          "name": "durationInDays",
          "type": "uint256"
        },
        {
          "internalType": "uint256",
          "name": "dateExpiration",
          "type": "uint256"
        },
        {
          "internalType": "bool",
          "name": "active",
          "type": "bool"
        }
      ],
      "stateMutability": "view",
      "type": "function"
    },
    {
      "inputs": [
        {
          "internalType": "address",
          "name": "",
          "type": "address"
        }
      ],
      "name": "nextInsuranceId",
      "outputs": [
        {
          "internalType": "uint256",
          "name": "",
          "type": "uint256"
        }
      ],
      "stateMutability": "view",
      "type": "function"
    },
    {
      "inputs": [
        {
          "internalType": "uint256",
          "name": "_id",
          "type": "uint256"
        }
      ],
      "name": "restartInsurance",
      "outputs": [],
      "stateMutability": "nonpayable",
      "type": "function"
    },
    {
      "inputs": [
        {
          "internalType": "uint256",
          "name": "_id",
          "type": "uint256"
        }
      ],
      "name": "stopInsurance",
      "outputs": [],
      "stateMutability": "nonpayable",
      "type": "function"
    },
    {
      "inputs": [],
      "name": "transferToSociety",
      "outputs": [],
      "stateMutability": "payable",
      "type": "function"
    }
  ],
  "bytecode": "0x608060405234801561001057600080fd5b50737526fb9605fe387929143f626e82125eaf231b2d600260006101000a81548173ffffffffffffffffffffffffffffffffffffffff021916908373ffffffffffffffffffffffffffffffffffffffff1602179055506000600160003373ffffffffffffffffffffffffffffffffffffffff1673ffffffffffffffffffffffffffffffffffffffff1681526020019081526020016000208190555061174e806100ba6000396000f3fe6080604052600436106100705760003560e01c80637a33bb441161004e5780637a33bb44146100e75780638f20e22614610103578063a1de65f414610147578063cdc5560b1461017057610070565b80630e709ca714610075578063373b0d83146100a05780636a7eb633146100dd575b600080fd5b34801561008157600080fd5b5061008a610199565b604051610097919061113f565b60405180910390f35b3480156100ac57600080fd5b506100c760048036038101906100c29190611192565b61032e565b6040516100d491906111ce565b60405180910390f35b6100e5610346565b005b61010160048036038101906100fc9190611215565b6104c9565b005b34801561010f57600080fd5b5061012a60048036038101906101259190611215565b610a16565b60405161013e989796959493929190611273565b60405180910390f35b34801561015357600080fd5b5061016e600480360381019061016991906112f1565b610ac8565b005b34801561017c57600080fd5b50610197600480360381019061019291906112f1565b610ca8565b005b60606000803373ffffffffffffffffffffffffffffffffffffffff1673ffffffffffffffffffffffffffffffffffffffff168152602001908152602001600020805480602002602001604051908101604052809291908181526020016000905b82821015610325578382906000526020600020906008020160405180610100016040529081600082015481526020016001820160009054906101000a900473ffffffffffffffffffffffffffffffffffffffff1673ffffffffffffffffffffffffffffffffffffffff1673ffffffffffffffffffffffffffffffffffffffff1681526020016002820160009054906101000a900473ffffffffffffffffffffffffffffffffffffffff1673ffffffffffffffffffffffffffffffffffffffff1673ffffffffffffffffffffffffffffffffffffffff168152602001600382015481526020016004820154815260200160058201548152602001600682015481526020016007820160009054906101000a900460ff161515151581525050815260200190600101906101f9565b50505050905090565b60016020528060005260406000206000915090505481565b600073ffffffffffffffffffffffffffffffffffffffff16600360009054906101000a900473ffffffffffffffffffffffffffffffffffffffff1673ffffffffffffffffffffffffffffffffffffffff16036103d7576040517f08c379a00000000000000000000000000000000000000000000000000000000081526004016103ce9061137b565b60405180910390fd5b600360009054906101000a900473ffffffffffffffffffffffffffffffffffffffff1673ffffffffffffffffffffffffffffffffffffffff166108fc349081150290604051600060405180830381858888f1935050505015801561043f573d6000803e3d6000fd5b50600360009054906101000a900473ffffffffffffffffffffffffffffffffffffffff1673ffffffffffffffffffffffffffffffffffffffff163373ffffffffffffffffffffffffffffffffffffffff167f6c8fad66beffc59676ce59c6b650449af6155c4b0ea004df15b0226437b8384c346040516104bf91906111ce565b60405180910390a3565b6000341161050c576040517f08c379a0000000000000000000000000000000000000000000000000000000008152600401610503906113e7565b60405180910390fd5b6000811161054f576040517f08c379a000000000000000000000000000000000000000000000000000000000815260040161054690611453565b60405180910390fd5b6000600160003373ffffffffffffffffffffffffffffffffffffffff1673ffffffffffffffffffffffffffffffffffffffff1681526020019081526020016000205490506000429050600062015180846105a991906114a2565b826105b491906114e4565b905060006040518061010001604052808581526020013373ffffffffffffffffffffffffffffffffffffffff1681526020018773ffffffffffffffffffffffffffffffffffffffff16815260200134815260200184815260200186815260200183815260200160001515815250905085600360006101000a81548173ffffffffffffffffffffffffffffffffffffffff021916908373ffffffffffffffffffffffffffffffffffffffff1602179055506000803373ffffffffffffffffffffffffffffffffffffffff1673ffffffffffffffffffffffffffffffffffffffff1681526020019081526020016000208190806001815401808255809150506001900390600052602060002090600802016000909190919091506000820151816000015560208201518160010160006101000a81548173ffffffffffffffffffffffffffffffffffffffff021916908373ffffffffffffffffffffffffffffffffffffffff16021790555060408201518160020160006101000a81548173ffffffffffffffffffffffffffffffffffffffff021916908373ffffffffffffffffffffffffffffffffffffffff160217905550606082015181600301556080820151816004015560a0820151816005015560c0820151816006015560e08201518160070160006101000a81548160ff02191690831515021790555050506000808773ffffffffffffffffffffffffffffffffffffffff1673ffffffffffffffffffffffffffffffffffffffff1681526020019081526020016000208190806001815401808255809150506001900390600052602060002090600802016000909190919091506000820151816000015560208201518160010160006101000a81548173ffffffffffffffffffffffffffffffffffffffff021916908373ffffffffffffffffffffffffffffffffffffffff16021790555060408201518160020160006101000a81548173ffffffffffffffffffffffffffffffffffffffff021916908373ffffffffffffffffffffffffffffffffffffffff160217905550606082015181600301556080820151816004015560a0820151816005015560c0820151816006015560e08201518160070160006101000a81548160ff02191690831515021790555050508573ffffffffffffffffffffffffffffffffffffffff163373ffffffffffffffffffffffffffffffffffffffff16857f7347f48e339579daf360c981c119283ce5635f15aaa771d2b37434162de748f634878a8860405161095c9493929190611518565b60405180910390a4600160003373ffffffffffffffffffffffffffffffffffffffff1673ffffffffffffffffffffffffffffffffffffffff16815260200190815260200160002060008154809291906109b49061155d565b9190505550600160008773ffffffffffffffffffffffffffffffffffffffff1673ffffffffffffffffffffffffffffffffffffffff1681526020019081526020016000206000815480929190610a099061155d565b9190505550505050505050565b60006020528160005260406000208181548110610a3257600080fd5b9060005260206000209060080201600091509150508060000154908060010160009054906101000a900473ffffffffffffffffffffffffffffffffffffffff16908060020160009054906101000a900473ffffffffffffffffffffffffffffffffffffffff16908060030154908060040154908060050154908060060154908060070160009054906101000a900460ff16905088565b60008060003373ffffffffffffffffffffffffffffffffffffffff1673ffffffffffffffffffffffffffffffffffffffff1681526020019081526020016000208281548110610b1a57610b196115a5565b5b906000526020600020906008020160010160009054906101000a900473ffffffffffffffffffffffffffffffffffffffff1690506000808273ffffffffffffffffffffffffffffffffffffffff1673ffffffffffffffffffffffffffffffffffffffff1681526020019081526020016000208281548110610b9e57610b9d6115a5565b5b906000526020600020906008020160070160009054906101000a900460ff1615610bfd576040517f08c379a0000000000000000000000000000000000000000000000000000000008152600401610bf490611620565b60405180910390fd5b60016000808373ffffffffffffffffffffffffffffffffffffffff1673ffffffffffffffffffffffffffffffffffffffff1681526020019081526020016000208381548110610c4f57610c4e6115a5565b5b906000526020600020906008020160070160006101000a81548160ff021916908315150217905550817f77c5f700f454c4f319ec627198bc86da217c32068e1a051c8edcb2ae8f2c059c60405160405180910390a25050565b806000803373ffffffffffffffffffffffffffffffffffffffff1673ffffffffffffffffffffffffffffffffffffffff1681526020019081526020016000208181548110610cf957610cf86115a5565b5b906000526020600020906008020160020160009054906101000a900473ffffffffffffffffffffffffffffffffffffffff1673ffffffffffffffffffffffffffffffffffffffff163373ffffffffffffffffffffffffffffffffffffffff1614610d98576040517f08c379a0000000000000000000000000000000000000000000000000000000008152600401610d8f9061168c565b60405180910390fd5b60008060003373ffffffffffffffffffffffffffffffffffffffff1673ffffffffffffffffffffffffffffffffffffffff1681526020019081526020016000208381548110610dea57610de96115a5565b5b906000526020600020906008020160010160009054906101000a900473ffffffffffffffffffffffffffffffffffffffff1690506000808273ffffffffffffffffffffffffffffffffffffffff1673ffffffffffffffffffffffffffffffffffffffff1681526020019081526020016000208381548110610e6e57610e6d6115a5565b5b906000526020600020906008020160070160009054906101000a900460ff16610ecc576040517f08c379a0000000000000000000000000000000000000000000000000000000008152600401610ec3906116f8565b60405180910390fd5b60008060008373ffffffffffffffffffffffffffffffffffffffff1673ffffffffffffffffffffffffffffffffffffffff1681526020019081526020016000208481548110610f1e57610f1d6115a5565b5b906000526020600020906008020160070160006101000a81548160ff021916908315150217905550827fda37747fa267fc8668561569bfe7a35ef1a60fb811f1e6075e2e76e2fb2595aa60405160405180910390a2505050565b600081519050919050565b600082825260208201905092915050565b6000819050602082019050919050565b6000819050919050565b610fb781610fa4565b82525050565b600073ffffffffffffffffffffffffffffffffffffffff82169050919050565b6000610fe882610fbd565b9050919050565b610ff881610fdd565b82525050565b60008115159050919050565b61101381610ffe565b82525050565b610100820160008201516110306000850182610fae565b5060208201516110436020850182610fef565b5060408201516110566040850182610fef565b5060608201516110696060850182610fae565b50608082015161107c6080850182610fae565b5060a082015161108f60a0850182610fae565b5060c08201516110a260c0850182610fae565b5060e08201516110b560e085018261100a565b50505050565b60006110c78383611019565b6101008301905092915050565b6000602082019050919050565b60006110ec82610f78565b6110f68185610f83565b935061110183610f94565b8060005b8381101561113257815161111988826110bb565b9750611124836110d4565b925050600181019050611105565b5085935050505092915050565b6000602082019050818103600083015261115981846110e1565b905092915050565b600080fd5b61116f81610fdd565b811461117a57600080fd5b50565b60008135905061118c81611166565b92915050565b6000602082840312156111a8576111a7611161565b5b60006111b68482850161117d565b91505092915050565b6111c881610fa4565b82525050565b60006020820190506111e360008301846111bf565b92915050565b6111f281610fa4565b81146111fd57600080fd5b50565b60008135905061120f816111e9565b92915050565b6000806040838503121561122c5761122b611161565b5b600061123a8582860161117d565b925050602061124b85828601611200565b9150509250929050565b61125e81610fdd565b82525050565b61126d81610ffe565b82525050565b600061010082019050611289600083018b6111bf565b611296602083018a611255565b6112a36040830189611255565b6112b060608301886111bf565b6112bd60808301876111bf565b6112ca60a08301866111bf565b6112d760c08301856111bf565b6112e460e0830184611264565b9998505050505050505050565b60006020828403121561130757611306611161565b5b600061131584828501611200565b91505092915050565b600082825260208201905092915050565b7f536f63696574792061646472657373206e6f7420736574000000000000000000600082015250565b600061136560178361131e565b91506113708261132f565b602082019050919050565b6000602082019050818103600083015261139481611358565b9050919050565b7f416d6f756e74206d7573742062652067726561746572207468616e2030000000600082015250565b60006113d1601d8361131e565b91506113dc8261139b565b602082019050919050565b60006020820190508181036000830152611400816113c4565b9050919050565b7f496e76616c6964206475726174696f6e00000000000000000000000000000000600082015250565b600061143d60108361131e565b915061144882611407565b602082019050919050565b6000602082019050818103600083015261146c81611430565b9050919050565b7f4e487b7100000000000000000000000000000000000000000000000000000000600052601160045260246000fd5b60006114ad82610fa4565b91506114b883610fa4565b92508282026114c681610fa4565b915082820484148315176114dd576114dc611473565b5b5092915050565b60006114ef82610fa4565b91506114fa83610fa4565b925082820190508082111561151257611511611473565b5b92915050565b600060808201905061152d60008301876111bf565b61153a60208301866111bf565b61154760408301856111bf565b61155460608301846111bf565b95945050505050565b600061156882610fa4565b91507fffffffffffffffffffffffffffffffffffffffffffffffffffffffffffffffff820361159a57611599611473565b5b600182019050919050565b7f4e487b7100000000000000000000000000000000000000000000000000000000600052603260045260246000fd5b7f496e737572616e636520697320616c7265616479206163746976650000000000600082015250565b600061160a601b8361131e565b9150611615826115d4565b602082019050919050565b60006020820190508181036000830152611639816115fd565b9050919050565b7f4e6f7420617574686f72697a6564000000000000000000000000000000000000600082015250565b6000611676600e8361131e565b915061168182611640565b602082019050919050565b600060208201905081810360008301526116a581611669565b9050919050565b7f496e737572616e636520697320616c72656164792073746f7070656400000000600082015250565b60006116e2601c8361131e565b91506116ed826116ac565b602082019050919050565b60006020820190508181036000830152611711816116d5565b905091905056fea26469706673582212204b547f67c44d6f16c18897a52721a132476acf6ab72a0488c638141aa9deb01c64736f6c63430008110033",
  "linkReferences": {},
  "deployedLinkReferences": {}
}