{
  "_format": "hh-sol-artifact-1",
  "contractName": "ReclamationContract",
  "sourceName": "contracts/reclamation.sol",
  "abi": [
    {
      "inputs": [],
      "stateMutability": "nonpayable",
      "type": "constructor"
    },
    {
      "anonymous": false,
      "inputs": [
        {
          "indexed": true,
          "internalType": "address",
          "name": "user",
          "type": "address"
        },
        {
          "indexed": false,
          "internalType": "uint256",
          "name": "amount",
          "type": "uint256"
        }
      ],
      "name": "FundTransferredToUser",
      "type": "event"
    },
    {
      "anonymous": false,
      "inputs": [
        {
          "indexed": true,
          "internalType": "uint256",
          "name": "id",
          "type": "uint256"
        },
        {
          "indexed": false,
          "internalType": "bool",
          "name": "accept",
          "type": "bool"
        },
        {
          "indexed": true,
          "internalType": "address",
          "name": "society",
          "type": "address"
        },
        {
          "indexed": false,
          "internalType": "uint256",
          "name": "amount",
          "type": "uint256"
        }
      ],
      "name": "ReclamationProcessed",
      "type": "event"
    },
    {
      "anonymous": false,
      "inputs": [
        {
          "indexed": true,
          "internalType": "uint256",
          "name": "id",
          "type": "uint256"
        },
        {
          "indexed": true,
          "internalType": "address",
          "name": "user",
          "type": "address"
        },
        {
          "indexed": true,
          "internalType": "address",
          "name": "society",
          "type": "address"
        },
        {
          "indexed": false,
          "internalType": "uint256",
          "name": "amount",
          "type": "uint256"
        }
      ],
      "name": "ReclamationSubmitted",
      "type": "event"
    },
    {
      "inputs": [],
      "name": "getReclamationsByUser",
      "outputs": [
        {
          "components": [
            {
              "internalType": "uint256",
              "name": "id",
              "type": "uint256"
            },
            {
              "internalType": "address",
              "name": "etudiant",
              "type": "address"
            },
            {
              "internalType": "address",
              "name": "society",
              "type": "address"
            },
            {
              "internalType": "uint256",
              "name": "amount",
              "type": "uint256"
            },
            {
              "internalType": "string",
              "name": "status",
              "type": "string"
            },
            {
              "internalType": "uint256",
              "name": "timestamp",
              "type": "uint256"
            }
          ],
          "internalType": "struct ReclamationContract.Reclamation[]",
          "name": "",
          "type": "tuple[]"
        }
      ],
      "stateMutability": "view",
      "type": "function"
    },
    {
      "inputs": [
        {
          "internalType": "address",
          "name": "",
          "type": "address"
        }
      ],
      "name": "nextReclamationId",
      "outputs": [
        {
          "internalType": "uint256",
          "name": "",
          "type": "uint256"
        }
      ],
      "stateMutability": "view",
      "type": "function"
    },
    {
      "inputs": [
        {
          "internalType": "uint256",
          "name": "reclamationId",
          "type": "uint256"
        },
        {
          "internalType": "bool",
          "name": "accept",
          "type": "bool"
        }
      ],
      "name": "processReclamation",
      "outputs": [],
      "stateMutability": "nonpayable",
      "type": "function"
    },
    {
      "inputs": [
        {
          "internalType": "address",
          "name": "",
          "type": "address"
        },
        {
          "internalType": "uint256",
          "name": "",
          "type": "uint256"
        }
      ],
      "name": "reclamations",
      "outputs": [
        {
          "internalType": "uint256",
          "name": "id",
          "type": "uint256"
        },
        {
          "internalType": "address",
          "name": "etudiant",
          "type": "address"
        },
        {
          "internalType": "address",
          "name": "society",
          "type": "address"
        },
        {
          "internalType": "uint256",
          "name": "amount",
          "type": "uint256"
        },
        {
          "internalType": "string",
          "name": "status",
          "type": "string"
        },
        {
          "internalType": "uint256",
          "name": "timestamp",
          "type": "uint256"
        }
      ],
      "stateMutability": "view",
      "type": "function"
    },
    {
      "inputs": [
        {
          "internalType": "address",
          "name": "societyAdd",
          "type": "address"
        }
      ],
      "name": "submitReclamation",
      "outputs": [],
      "stateMutability": "payable",
      "type": "function"
    }
  ],
  "bytecode": "0x608060405234801561001057600080fd5b50737526fb9605fe387929143f626e82125eaf231b2d600360006101000a81548173ffffffffffffffffffffffffffffffffffffffff021916908373ffffffffffffffffffffffffffffffffffffffff1602179055506000600160003373ffffffffffffffffffffffffffffffffffffffff1673ffffffffffffffffffffffffffffffffffffffff16815260200190815260200160002081905550611869806100ba6000396000f3fe60806040526004361061004a5760003560e01c80635d1158e21461004f57806382603ff61461007a578063ab091450146100a3578063b07c58b7146100e5578063bebc0c4914610101575b600080fd5b34801561005b57600080fd5b5061006461013e565b6040516100719190611049565b60405180910390f35b34801561008657600080fd5b506100a1600480360381019061009c91906110d4565b610335565b005b3480156100af57600080fd5b506100ca60048036038101906100c59190611140565b61080e565b6040516100dc969594939291906111e8565b60405180910390f35b6100ff60048036038101906100fa9190611250565b61092f565b005b34801561010d57600080fd5b5061012860048036038101906101239190611250565b610dfc565b604051610135919061127d565b60405180910390f35b60606000803373ffffffffffffffffffffffffffffffffffffffff1673ffffffffffffffffffffffffffffffffffffffff168152602001908152602001600020805480602002602001604051908101604052809291908181526020016000905b8282101561032c57838290600052602060002090600602016040518060c0016040529081600082015481526020016001820160009054906101000a900473ffffffffffffffffffffffffffffffffffffffff1673ffffffffffffffffffffffffffffffffffffffff1673ffffffffffffffffffffffffffffffffffffffff1681526020016002820160009054906101000a900473ffffffffffffffffffffffffffffffffffffffff1673ffffffffffffffffffffffffffffffffffffffff1673ffffffffffffffffffffffffffffffffffffffff16815260200160038201548152602001600482018054610291906112c7565b80601f01602080910402602001604051908101604052809291908181526020018280546102bd906112c7565b801561030a5780601f106102df5761010080835404028352916020019161030a565b820191906000526020600020905b8154815290600101906020018083116102ed57829003601f168201915b505050505081526020016005820154815250508152602001906001019061019e565b50505050905090565b600360009054906101000a900473ffffffffffffffffffffffffffffffffffffffff1673ffffffffffffffffffffffffffffffffffffffff163373ffffffffffffffffffffffffffffffffffffffff16146103c5576040517f08c379a00000000000000000000000000000000000000000000000000000000081526004016103bc90611344565b60405180910390fd5b6000803373ffffffffffffffffffffffffffffffffffffffff1673ffffffffffffffffffffffffffffffffffffffff168152602001908152602001600020805490508210610448576040517f08c379a000000000000000000000000000000000000000000000000000000000815260040161043f906113b0565b60405180910390fd5b80156106b3576040518060400160405280600881526020017f417070726f7665640000000000000000000000000000000000000000000000008152506000803373ffffffffffffffffffffffffffffffffffffffff1673ffffffffffffffffffffffffffffffffffffffff16815260200190815260200160002083815481106104d4576104d36113d0565b5b906000526020600020906006020160040190816104f191906115da565b5060008060003373ffffffffffffffffffffffffffffffffffffffff1673ffffffffffffffffffffffffffffffffffffffff1681526020019081526020016000208381548110610544576105436113d0565b5b906000526020600020906006020160010160009054906101000a900473ffffffffffffffffffffffffffffffffffffffff16905060008060003373ffffffffffffffffffffffffffffffffffffffff1673ffffffffffffffffffffffffffffffffffffffff16815260200190815260200160002084815481106105ca576105c96113d0565b5b906000526020600020906006020160030154905060008273ffffffffffffffffffffffffffffffffffffffff166108fc839081150290604051600060405180830381858888f1935050505090508015610670578273ffffffffffffffffffffffffffffffffffffffff167f039083324046698960944b20672acd97da9e4cbfcb9bd255ddf77af4720f42b083604051610663919061127d565b60405180910390a26106ab565b6040517f08c379a00000000000000000000000000000000000000000000000000000000081526004016106a2906116f8565b60405180910390fd5b505050610758565b6040518060400160405280600881526020017f52656a65637465640000000000000000000000000000000000000000000000008152506000803373ffffffffffffffffffffffffffffffffffffffff1673ffffffffffffffffffffffffffffffffffffffff1681526020019081526020016000208381548110610739576107386113d0565b5b9060005260206000209060060201600401908161075691906115da565b505b3373ffffffffffffffffffffffffffffffffffffffff16827f906a06973cfde518c798436894341ee5b83d81f1d645ac372420deaa344581c2836000803373ffffffffffffffffffffffffffffffffffffffff1673ffffffffffffffffffffffffffffffffffffffff16815260200190815260200160002086815481106107e2576107e16113d0565b5b906000526020600020906006020160030154604051610802929190611727565b60405180910390a35050565b6000602052816000526040600020818154811061082a57600080fd5b9060005260206000209060060201600091509150508060000154908060010160009054906101000a900473ffffffffffffffffffffffffffffffffffffffff16908060020160009054906101000a900473ffffffffffffffffffffffffffffffffffffffff16908060030154908060040180546108a6906112c7565b80601f01602080910402602001604051908101604052809291908181526020018280546108d2906112c7565b801561091f5780601f106108f45761010080835404028352916020019161091f565b820191906000526020600020905b81548152906001019060200180831161090257829003601f168201915b5050505050908060050154905086565b60003411610972576040517f08c379a00000000000000000000000000000000000000000000000000000000081526004016109699061179c565b60405180910390fd5b60006040518060c00160405280600160003373ffffffffffffffffffffffffffffffffffffffff1673ffffffffffffffffffffffffffffffffffffffff1681526020019081526020016000205481526020013373ffffffffffffffffffffffffffffffffffffffff1681526020018373ffffffffffffffffffffffffffffffffffffffff1681526020013481526020016040518060400160405280600781526020017f50656e64696e670000000000000000000000000000000000000000000000000081525081526020014281525090506000803373ffffffffffffffffffffffffffffffffffffffff1673ffffffffffffffffffffffffffffffffffffffff1681526020019081526020016000208190806001815401808255809150506001900390600052602060002090600602016000909190919091506000820151816000015560208201518160010160006101000a81548173ffffffffffffffffffffffffffffffffffffffff021916908373ffffffffffffffffffffffffffffffffffffffff16021790555060408201518160020160006101000a81548173ffffffffffffffffffffffffffffffffffffffff021916908373ffffffffffffffffffffffffffffffffffffffff160217905550606082015181600301556080820151816004019081610b6291906115da565b5060a0820151816005015550506000808373ffffffffffffffffffffffffffffffffffffffff1673ffffffffffffffffffffffffffffffffffffffff1681526020019081526020016000208190806001815401808255809150506001900390600052602060002090600602016000909190919091506000820151816000015560208201518160010160006101000a81548173ffffffffffffffffffffffffffffffffffffffff021916908373ffffffffffffffffffffffffffffffffffffffff16021790555060408201518160020160006101000a81548173ffffffffffffffffffffffffffffffffffffffff021916908373ffffffffffffffffffffffffffffffffffffffff160217905550606082015181600301556080820151816004019081610c8e91906115da565b5060a08201518160050155505081600260006101000a81548173ffffffffffffffffffffffffffffffffffffffff021916908373ffffffffffffffffffffffffffffffffffffffff160217905550600260009054906101000a900473ffffffffffffffffffffffffffffffffffffffff1673ffffffffffffffffffffffffffffffffffffffff163373ffffffffffffffffffffffffffffffffffffffff16600160003373ffffffffffffffffffffffffffffffffffffffff1673ffffffffffffffffffffffffffffffffffffffff168152602001908152602001600020547f46a895dbbc0cdfb0c3d764860e064ab22fe6f7138b347e888637cbd10e5a1c0d34604051610d9b919061127d565b60405180910390a4600160003373ffffffffffffffffffffffffffffffffffffffff1673ffffffffffffffffffffffffffffffffffffffff1681526020019081526020016000206000815480929190610df3906117eb565b91905055505050565b60016020528060005260406000206000915090505481565b600081519050919050565b600082825260208201905092915050565b6000819050602082019050919050565b6000819050919050565b610e5381610e40565b82525050565b600073ffffffffffffffffffffffffffffffffffffffff82169050919050565b6000610e8482610e59565b9050919050565b610e9481610e79565b82525050565b600081519050919050565b600082825260208201905092915050565b60005b83811015610ed4578082015181840152602081019050610eb9565b60008484015250505050565b6000601f19601f8301169050919050565b6000610efc82610e9a565b610f068185610ea5565b9350610f16818560208601610eb6565b610f1f81610ee0565b840191505092915050565b600060c083016000830151610f426000860182610e4a565b506020830151610f556020860182610e8b565b506040830151610f686040860182610e8b565b506060830151610f7b6060860182610e4a565b5060808301518482036080860152610f938282610ef1565b91505060a0830151610fa860a0860182610e4a565b508091505092915050565b6000610fbf8383610f2a565b905092915050565b6000602082019050919050565b6000610fdf82610e14565b610fe98185610e1f565b935083602082028501610ffb85610e30565b8060005b8581101561103757848403895281516110188582610fb3565b945061102383610fc7565b925060208a01995050600181019050610fff565b50829750879550505050505092915050565b600060208201905081810360008301526110638184610fd4565b905092915050565b600080fd5b61107981610e40565b811461108457600080fd5b50565b60008135905061109681611070565b92915050565b60008115159050919050565b6110b18161109c565b81146110bc57600080fd5b50565b6000813590506110ce816110a8565b92915050565b600080604083850312156110eb576110ea61106b565b5b60006110f985828601611087565b925050602061110a858286016110bf565b9150509250929050565b61111d81610e79565b811461112857600080fd5b50565b60008135905061113a81611114565b92915050565b600080604083850312156111575761115661106b565b5b60006111658582860161112b565b925050602061117685828601611087565b9150509250929050565b61118981610e40565b82525050565b61119881610e79565b82525050565b600082825260208201905092915050565b60006111ba82610e9a565b6111c4818561119e565b93506111d4818560208601610eb6565b6111dd81610ee0565b840191505092915050565b600060c0820190506111fd6000830189611180565b61120a602083018861118f565b611217604083018761118f565b6112246060830186611180565b818103608083015261123681856111af565b905061124560a0830184611180565b979650505050505050565b6000602082840312156112665761126561106b565b5b60006112748482850161112b565b91505092915050565b60006020820190506112926000830184611180565b92915050565b7f4e487b7100000000000000000000000000000000000000000000000000000000600052602260045260246000fd5b600060028204905060018216806112df57607f821691505b6020821081036112f2576112f1611298565b5b50919050565b7f4e6f7420746865206f776e657200000000000000000000000000000000000000600082015250565b600061132e600d8361119e565b9150611339826112f8565b602082019050919050565b6000602082019050818103600083015261135d81611321565b9050919050565b7f496e76616c6964207265636c616d6174696f6e20494400000000000000000000600082015250565b600061139a60168361119e565b91506113a582611364565b602082019050919050565b600060208201905081810360008301526113c98161138d565b9050919050565b7f4e487b7100000000000000000000000000000000000000000000000000000000600052603260045260246000fd5b7f4e487b7100000000000000000000000000000000000000000000000000000000600052604160045260246000fd5b60008190508160005260206000209050919050565b60006020601f8301049050919050565b600082821b905092915050565b6000600883026114907fffffffffffffffffffffffffffffffffffffffffffffffffffffffffffffffff82611453565b61149a8683611453565b95508019841693508086168417925050509392505050565b6000819050919050565b60006114d76114d26114cd84610e40565b6114b2565b610e40565b9050919050565b6000819050919050565b6114f1836114bc565b6115056114fd826114de565b848454611460565b825550505050565b600090565b61151a61150d565b6115258184846114e8565b505050565b5b818110156115495761153e600082611512565b60018101905061152b565b5050565b601f82111561158e5761155f8161142e565b61156884611443565b81016020851015611577578190505b61158b61158385611443565b83018261152a565b50505b505050565b600082821c905092915050565b60006115b160001984600802611593565b1980831691505092915050565b60006115ca83836115a0565b9150826002028217905092915050565b6115e382610e9a565b67ffffffffffffffff8111156115fc576115fb6113ff565b5b61160682546112c7565b61161182828561154d565b600060209050601f8311600181146116445760008415611632578287015190505b61163c85826115be565b8655506116a4565b601f1984166116528661142e565b60005b8281101561167a57848901518255600182019150602085019450602081019050611655565b868310156116975784890151611693601f8916826115a0565b8355505b6001600288020188555050505b505050505050565b7f46756e64207472616e73666572206661696c6564000000000000000000000000600082015250565b60006116e260148361119e565b91506116ed826116ac565b602082019050919050565b60006020820190508181036000830152611711816116d5565b9050919050565b6117218161109c565b82525050565b600060408201905061173c6000830185611718565b6117496020830184611180565b9392505050565b7f416d6f756e74206d7573742062652067726561746572207468616e2030000000600082015250565b6000611786601d8361119e565b915061179182611750565b602082019050919050565b600060208201905081810360008301526117b581611779565b9050919050565b7f4e487b7100000000000000000000000000000000000000000000000000000000600052601160045260246000fd5b60006117f682610e40565b91507fffffffffffffffffffffffffffffffffffffffffffffffffffffffffffffffff8203611828576118276117bc565b5b60018201905091905056fea26469706673582212205c75ef584cc7f095b4fc526e9582c9489b96da3d7b31dfe8c3a7e37ed6c380b764736f6c63430008110033",
  "linkReferences": {},
  "deployedLinkReferences": {}
}